{
  "contractName": "StakingProtocol",
  "abi": [
    {
      "anonymous": false,
      "inputs": [
        {
          "indexed": false,
          "internalType": "address",
          "name": "user",
          "type": "address"
        },
        {
          "indexed": false,
          "internalType": "uint256",
          "name": "reward",
          "type": "uint256"
        },
        {
          "indexed": false,
          "internalType": "uint256",
          "name": "poolId",
          "type": "uint256"
        },
        {
          "indexed": false,
          "internalType": "uint256",
          "name": "time",
          "type": "uint256"
        },
        {
          "indexed": false,
          "internalType": "bool",
          "name": "unStaking",
          "type": "bool"
        }
      ],
      "name": "Claimed",
      "type": "event"
    },
    {
      "anonymous": false,
      "inputs": [
        {
          "indexed": true,
          "internalType": "address",
          "name": "previousOwner",
          "type": "address"
        },
        {
          "indexed": true,
          "internalType": "address",
          "name": "newOwner",
          "type": "address"
        }
      ],
      "name": "OwnershipTransferred",
      "type": "event"
    },
    {
      "anonymous": false,
      "inputs": [
        {
          "indexed": false,
          "internalType": "uint256",
          "name": "poolId",
          "type": "uint256"
        },
        {
          "indexed": false,
          "internalType": "address",
          "name": "stakingToken",
          "type": "address"
        },
        {
          "indexed": false,
          "internalType": "address",
          "name": "rewardToken",
          "type": "address"
        },
        {
          "indexed": false,
          "internalType": "uint256",
          "name": "yieldPerSecond",
          "type": "uint256"
        }
      ],
      "name": "PoolCreated",
      "type": "event"
    },
    {
      "anonymous": false,
      "inputs": [
        {
          "indexed": false,
          "internalType": "uint256",
          "name": "poolId",
          "type": "uint256"
        },
        {
          "indexed": false,
          "internalType": "bool",
          "name": "poolStatus",
          "type": "bool"
        }
      ],
      "name": "PoolStatusChanged",
      "type": "event"
    },
    {
      "anonymous": false,
      "inputs": [
        {
          "indexed": false,
          "internalType": "address",
          "name": "user",
          "type": "address"
        },
        {
          "indexed": false,
          "internalType": "uint256",
          "name": "amount",
          "type": "uint256"
        },
        {
          "indexed": false,
          "internalType": "uint256",
          "name": "poolId",
          "type": "uint256"
        },
        {
          "indexed": false,
          "internalType": "uint256",
          "name": "time",
          "type": "uint256"
        }
      ],
      "name": "Staked",
      "type": "event"
    },
    {
      "inputs": [],
      "name": "cliff",
      "outputs": [
        {
          "internalType": "uint256",
          "name": "",
          "type": "uint256"
        }
      ],
      "stateMutability": "view",
      "type": "function"
    },
    {
      "inputs": [],
      "name": "owner",
      "outputs": [
        {
          "internalType": "address",
          "name": "",
          "type": "address"
        }
      ],
      "stateMutability": "view",
      "type": "function"
    },
    {
      "inputs": [],
      "name": "paused",
      "outputs": [
        {
          "internalType": "bool",
          "name": "",
          "type": "bool"
        }
      ],
      "stateMutability": "view",
      "type": "function"
    },
    {
      "inputs": [
        {
          "internalType": "uint256",
          "name": "",
          "type": "uint256"
        }
      ],
      "name": "pool",
      "outputs": [
        {
          "internalType": "address",
          "name": "stakingToken",
          "type": "address"
        },
        {
          "internalType": "address",
          "name": "rewardToken",
          "type": "address"
        },
        {
          "internalType": "uint256",
          "name": "totalStaked",
          "type": "uint256"
        },
        {
          "internalType": "uint8",
          "name": "yieldPerSecond",
          "type": "uint8"
        }
      ],
      "stateMutability": "view",
      "type": "function"
    },
    {
      "inputs": [],
      "name": "poolCount",
      "outputs": [
        {
          "internalType": "uint256",
          "name": "",
          "type": "uint256"
        }
      ],
      "stateMutability": "view",
      "type": "function"
    },
    {
      "inputs": [
        {
          "internalType": "uint256",
          "name": "",
          "type": "uint256"
        }
      ],
      "name": "poolStatus",
      "outputs": [
        {
          "internalType": "bool",
          "name": "",
          "type": "bool"
        }
      ],
      "stateMutability": "view",
      "type": "function"
    },
    {
      "inputs": [],
      "name": "renounceOwnership",
      "outputs": [],
      "stateMutability": "nonpayable",
      "type": "function"
    },
    {
      "inputs": [
        {
          "internalType": "address",
          "name": "",
          "type": "address"
        },
        {
          "internalType": "uint256",
          "name": "",
          "type": "uint256"
        }
      ],
      "name": "stake",
      "outputs": [
        {
          "internalType": "uint256",
          "name": "stakeTime",
          "type": "uint256"
        },
        {
          "internalType": "uint256",
          "name": "stakeAmount",
          "type": "uint256"
        }
      ],
      "stateMutability": "view",
      "type": "function"
    },
    {
      "inputs": [
        {
          "internalType": "address",
          "name": "newOwner",
          "type": "address"
        }
      ],
      "name": "transferOwnership",
      "outputs": [],
      "stateMutability": "nonpayable",
      "type": "function"
    },
    {
      "inputs": [
        {
          "internalType": "bool",
          "name": "stakingStatus_",
          "type": "bool"
        }
      ],
      "name": "changeStakingStatus",
      "outputs": [
        {
          "internalType": "bool",
          "name": "",
          "type": "bool"
        }
      ],
      "stateMutability": "nonpayable",
      "type": "function"
    },
    {
      "inputs": [
        {
          "internalType": "uint256",
          "name": "poolId",
          "type": "uint256"
        },
        {
          "internalType": "bool",
          "name": "poolStatus_",
          "type": "bool"
        }
      ],
      "name": "changePoolStatus",
      "outputs": [
        {
          "internalType": "bool",
          "name": "",
          "type": "bool"
        }
      ],
      "stateMutability": "nonpayable",
      "type": "function"
    },
    {
      "inputs": [
        {
          "internalType": "address",
          "name": "stakingToken",
          "type": "address"
        },
        {
          "internalType": "address",
          "name": "rewardToken",
          "type": "address"
        },
        {
          "internalType": "uint256",
          "name": "yieldPerSecond",
          "type": "uint256"
        }
      ],
      "name": "createPool",
      "outputs": [
        {
          "internalType": "bool",
          "name": "",
          "type": "bool"
        }
      ],
      "stateMutability": "nonpayable",
      "type": "function"
    },
    {
      "inputs": [
        {
          "internalType": "uint256",
          "name": "poolId",
          "type": "uint256"
        },
        {
          "internalType": "uint256",
          "name": "amount",
          "type": "uint256"
        }
      ],
      "name": "stakeToken",
      "outputs": [
        {
          "internalType": "bool",
          "name": "",
          "type": "bool"
        }
      ],
      "stateMutability": "nonpayable",
      "type": "function"
    },
    {
      "inputs": [
        {
          "internalType": "uint256",
          "name": "poolId",
          "type": "uint256"
        },
        {
          "internalType": "bool",
          "name": "unStaking",
          "type": "bool"
        }
      ],
      "name": "claimToken",
      "outputs": [
        {
          "internalType": "bool",
          "name": "",
          "type": "bool"
        }
      ],
      "stateMutability": "nonpayable",
      "type": "function"
    },
    {
      "inputs": [
        {
          "internalType": "address",
          "name": "user",
          "type": "address"
        },
        {
          "internalType": "uint256",
          "name": "poolId",
          "type": "uint256"
        }
      ],
      "name": "stakeInfo",
      "outputs": [
        {
          "components": [
            {
              "internalType": "uint256",
              "name": "stakeTime",
              "type": "uint256"
            },
            {
              "internalType": "uint256",
              "name": "stakeAmount",
              "type": "uint256"
            }
          ],
          "internalType": "struct IStakingProtocol.StakingInfo",
          "name": "",
          "type": "tuple"
        }
      ],
      "stateMutability": "view",
      "type": "function"
    },
    {
      "inputs": [
        {
          "internalType": "uint256",
          "name": "poolId",
          "type": "uint256"
        }
      ],
      "name": "fetchUnclaimedReward",
      "outputs": [
        {
          "internalType": "uint256",
          "name": "",
          "type": "uint256"
        }
      ],
      "stateMutability": "view",
      "type": "function"
    },
    {
      "inputs": [
        {
          "internalType": "uint256",
          "name": "poolId",
          "type": "uint256"
        }
      ],
      "name": "fetchPoolInfo",
      "outputs": [
        {
          "components": [
            {
              "internalType": "address",
              "name": "stakingToken",
              "type": "address"
            },
            {
              "internalType": "address",
              "name": "rewardToken",
              "type": "address"
            },
            {
              "internalType": "uint256",
              "name": "totalStaked",
              "type": "uint256"
            },
            {
              "internalType": "uint8",
              "name": "yieldPerSecond",
              "type": "uint8"
            }
          ],
          "internalType": "struct IStakingProtocol.PoolInfo",
          "name": "",
          "type": "tuple"
        }
      ],
      "stateMutability": "view",
      "type": "function"
    }
  ],
  "bytecode": "0x60806040523480156200001157600080fd5b5062000032620000266200003860201b60201c565b6200004060201b60201c565b62000104565b600033905090565b60008060009054906101000a900473ffffffffffffffffffffffffffffffffffffffff169050816000806101000a81548173ffffffffffffffffffffffffffffffffffffffff021916908373ffffffffffffffffffffffffffffffffffffffff1602179055508173ffffffffffffffffffffffffffffffffffffffff168173ffffffffffffffffffffffffffffffffffffffff167f8be0079c531659141344cd1fd0a4f28419497f9722a3daafe3b4186f6b6457e060405160405180910390a35050565b6125b880620001146000396000f3fe608060405234801561001057600080fd5b506004361061010b5760003560e01c80638da5cb5b116100a2578063f2fde38b11610071578063f2fde38b146102f5578063f525cb6814610311578063f665d10b1461032f578063fe3131121461035f578063ffab4bd9146103925761010b565b80638da5cb5b1461024657806396e7952e146102645780639946e34114610294578063adc9772e146102c45761010b565b8063424122d3116100de578063424122d3146101be57806351810fb5146101ee5780635c975abb1461021e578063715018a61461023c5761010b565b80630bd3e58d146101105780630bfd351c1461014057806313d033c0146101705780631c43bd7d1461018e575b600080fd5b61012a6004803603810190610125919061181b565b6103c2565b6040516101379190611857565b60405180910390f35b61015a600480360381019061015591906118aa565b6104e1565b60405161016791906118f9565b60405180910390f35b610178610612565b6040516101859190611857565b60405180910390f35b6101a860048036038101906101a39190611972565b610618565b6040516101b591906119f0565b60405180910390f35b6101d860048036038101906101d3919061181b565b61077d565b6040516101e59190611a8b565b60405180910390f35b61020860048036038101906102039190611aa6565b61087d565b60405161021591906118f9565b60405180910390f35b610226610b29565b60405161023391906118f9565b60405180910390f35b610244610b3c565b005b61024e610bc4565b60405161025b9190611b08565b60405180910390f35b61027e600480360381019061027991906118aa565b610bed565b60405161028b91906118f9565b60405180910390f35b6102ae60048036038101906102a99190611b23565b610f02565b6040516102bb91906118f9565b60405180910390f35b6102de60048036038101906102d99190611972565b610fa3565b6040516102ec929190611b50565b60405180910390f35b61030f600480360381019061030a9190611b79565b610fd4565b005b6103196110cc565b6040516103269190611857565b60405180910390f35b6103496004803603810190610344919061181b565b6110d2565b60405161035691906118f9565b60405180910390f35b6103796004803603810190610374919061181b565b6110f2565b6040516103899493929190611bb5565b60405180910390f35b6103ac60048036038101906103a79190611bfa565b61116f565b6040516103b991906118f9565b60405180910390f35b600080600460006103d16116a3565b73ffffffffffffffffffffffffffffffffffffffff1673ffffffffffffffffffffffffffffffffffffffff168152602001908152602001600020600084815260200190815260200160002090506000600360008581526020019081526020016000209050600082600101541161047c576040517f08c379a000000000000000000000000000000000000000000000000000000000815260040161047390611c97565b60405180910390fd5b600082600001544261048e9190611ce6565b905060008260030160009054906101000a900460ff1660ff168285600101546104b79190611d1a565b6104c19190611d1a565b90506301e13380816104d39190611da3565b905080945050505050919050565b60006104eb6116a3565b73ffffffffffffffffffffffffffffffffffffffff16610509610bc4565b73ffffffffffffffffffffffffffffffffffffffff161461055f576040517f08c379a000000000000000000000000000000000000000000000000000000000815260040161055690611e20565b60405180910390fd5b6001548311156105a4576040517f08c379a000000000000000000000000000000000000000000000000000000000815260040161059b90611e8c565b60405180910390fd5b816005600085815260200190815260200160002060006101000a81548160ff0219169083151502179055507fb3c3c605d1520cd5bf41301dd5c04929e0ff021b02a10ea259b5a5b2d521a29c8383604051610600929190611eac565b60405180910390a16001905092915050565b60025481565b61062061176f565b6000600460008573ffffffffffffffffffffffffffffffffffffffff1673ffffffffffffffffffffffffffffffffffffffff1681526020019081526020016000206000848152602001908152602001600020905060025481600001546106869190611ed5565b42111561070457600460008573ffffffffffffffffffffffffffffffffffffffff1673ffffffffffffffffffffffffffffffffffffffff168152602001908152602001600020600084815260200190815260200160002060405180604001604052908160008201548152602001600182015481525050915050610777565b600460008073ffffffffffffffffffffffffffffffffffffffff1673ffffffffffffffffffffffffffffffffffffffff1681526020019081526020016000206000808152602001908152602001600020604051806040016040529081600082015481526020016001820154815250509150505b92915050565b610785611789565b600360008381526020019081526020016000206040518060800160405290816000820160009054906101000a900473ffffffffffffffffffffffffffffffffffffffff1673ffffffffffffffffffffffffffffffffffffffff1673ffffffffffffffffffffffffffffffffffffffff1681526020016001820160009054906101000a900473ffffffffffffffffffffffffffffffffffffffff1673ffffffffffffffffffffffffffffffffffffffff1673ffffffffffffffffffffffffffffffffffffffff168152602001600282015481526020016003820160009054906101000a900460ff1660ff1660ff16815250509050919050565b60006108876116a3565b73ffffffffffffffffffffffffffffffffffffffff166108a5610bc4565b73ffffffffffffffffffffffffffffffffffffffff16146108fb576040517f08c379a00000000000000000000000000000000000000000000000000000000081526004016108f290611e20565b60405180910390fd5b600073ffffffffffffffffffffffffffffffffffffffff168473ffffffffffffffffffffffffffffffffffffffff16141580156109655750600073ffffffffffffffffffffffffffffffffffffffff168373ffffffffffffffffffffffffffffffffffffffff1614155b6109a4576040517f08c379a000000000000000000000000000000000000000000000000000000000815260040161099b90611f9d565b60405180910390fd5b60018060008282546109b69190611ed5565b9250508190555060405180608001604052808473ffffffffffffffffffffffffffffffffffffffff1681526020018573ffffffffffffffffffffffffffffffffffffffff168152602001838152602001600060ff1681525060036000600154815260200190815260200160002060008201518160000160006101000a81548173ffffffffffffffffffffffffffffffffffffffff021916908373ffffffffffffffffffffffffffffffffffffffff16021790555060208201518160010160006101000a81548173ffffffffffffffffffffffffffffffffffffffff021916908373ffffffffffffffffffffffffffffffffffffffff1602179055506040820151816002015560608201518160030160006101000a81548160ff021916908360ff1602179055509050507ff756876565d755443228c555dcee8573d6405d9be751ac121eb5e386ed86913a600154858585604051610b169493929190611fbd565b60405180910390a1600190509392505050565b600060149054906101000a900460ff1681565b610b446116a3565b73ffffffffffffffffffffffffffffffffffffffff16610b62610bc4565b73ffffffffffffffffffffffffffffffffffffffff1614610bb8576040517f08c379a0000000000000000000000000000000000000000000000000000000008152600401610baf90611e20565b60405180910390fd5b610bc260006116ab565b565b60008060009054906101000a900473ffffffffffffffffffffffffffffffffffffffff16905090565b60008060149054906101000a900460ff1615610c3e576040517f08c379a0000000000000000000000000000000000000000000000000000000008152600401610c359061204e565b60405180910390fd5b6000610c49846103c2565b905060008111610c8e576040517f08c379a0000000000000000000000000000000000000000000000000000000008152600401610c85906120ba565b60405180910390fd5b6000600360008681526020019081526020016000209050600060046000610cb36116a3565b73ffffffffffffffffffffffffffffffffffffffff1673ffffffffffffffffffffffffffffffffffffffff168152602001908152602001600020600087815260200190815260200160002090506000816001015490504282600001819055508515610df857600082600101819055508160010154836002016000828254610d3a9190611ce6565b925050819055508260000160009054906101000a900473ffffffffffffffffffffffffffffffffffffffff1673ffffffffffffffffffffffffffffffffffffffff1663a9059cbb610d896116a3565b836040518363ffffffff1660e01b8152600401610da79291906120da565b6020604051808303816000875af1158015610dc6573d6000803e3d6000fd5b505050506040513d601f19601f82011682018060405250810190610dea9190612118565b610df757610df6612145565b5b5b8260010160009054906101000a900473ffffffffffffffffffffffffffffffffffffffff1673ffffffffffffffffffffffffffffffffffffffff1663a9059cbb610e406116a3565b866040518363ffffffff1660e01b8152600401610e5e9291906120da565b6020604051808303816000875af1158015610e7d573d6000803e3d6000fd5b505050506040513d601f19601f82011682018060405250810190610ea19190612118565b610eae57610ead612145565b5b7f67cad33bfde477c6739dc9adc3b22fc9eac9c1ce5f0f349d6f15351caf0698cb610ed76116a3565b8589428a604051610eec959493929190612174565b60405180910390a1600194505050505092915050565b6000610f0c6116a3565b73ffffffffffffffffffffffffffffffffffffffff16610f2a610bc4565b73ffffffffffffffffffffffffffffffffffffffff1614610f80576040517f08c379a0000000000000000000000000000000000000000000000000000000008152600401610f7790611e20565b60405180910390fd5b81600060146101000a81548160ff02191690831515021790555060019050919050565b6004602052816000526040600020602052806000526040600020600091509150508060000154908060010154905082565b610fdc6116a3565b73ffffffffffffffffffffffffffffffffffffffff16610ffa610bc4565b73ffffffffffffffffffffffffffffffffffffffff1614611050576040517f08c379a000000000000000000000000000000000000000000000000000000000815260040161104790611e20565b60405180910390fd5b600073ffffffffffffffffffffffffffffffffffffffff168173ffffffffffffffffffffffffffffffffffffffff1614156110c0576040517f08c379a00000000000000000000000000000000000000000000000000000000081526004016110b790612239565b60405180910390fd5b6110c9816116ab565b50565b60015481565b60056020528060005260406000206000915054906101000a900460ff1681565b60036020528060005260406000206000915090508060000160009054906101000a900473ffffffffffffffffffffffffffffffffffffffff16908060010160009054906101000a900473ffffffffffffffffffffffffffffffffffffffff16908060020154908060030160009054906101000a900460ff16905084565b60008060149054906101000a900460ff16156111c0576040517f08c379a00000000000000000000000000000000000000000000000000000000081526004016111b7906122a5565b60405180910390fd5b600154831115611205576040517f08c379a00000000000000000000000000000000000000000000000000000000081526004016111fc90612311565b60405180910390fd5b6005600084815260200190815260200160002060009054906101000a900460ff1615611266576040517f08c379a000000000000000000000000000000000000000000000000000000000815260040161125d9061237d565b60405180910390fd5b600060036000858152602001908152602001600020905060006004600061128b6116a3565b73ffffffffffffffffffffffffffffffffffffffff1673ffffffffffffffffffffffffffffffffffffffff1681526020019081526020016000206000868152602001908152602001600020905060008260000160009054906101000a900473ffffffffffffffffffffffffffffffffffffffff169050848173ffffffffffffffffffffffffffffffffffffffff1663dd62ed3e6113266116a3565b306040518363ffffffff1660e01b815260040161134492919061239d565b602060405180830381865afa158015611361573d6000803e3d6000fd5b505050506040513d601f19601f8201168201806040525081019061138591906123db565b10156113c6576040517f08c379a00000000000000000000000000000000000000000000000000000000081526004016113bd90612454565b60405180910390fd5b848173ffffffffffffffffffffffffffffffffffffffff166370a082316113eb6116a3565b6040518263ffffffff1660e01b81526004016114079190611b08565b602060405180830381865afa158015611424573d6000803e3d6000fd5b505050506040513d601f19601f8201168201806040525081019061144891906123db565b1015611489576040517f08c379a0000000000000000000000000000000000000000000000000000000008152600401611480906124e6565b60405180910390fd5b60008260010154111561155b5760006114a1876103c2565b90508360010160009054906101000a900473ffffffffffffffffffffffffffffffffffffffff1673ffffffffffffffffffffffffffffffffffffffff1663a9059cbb6114eb6116a3565b836040518363ffffffff1660e01b81526004016115099291906120da565b6020604051808303816000875af1158015611528573d6000803e3d6000fd5b505050506040513d601f19601f8201168201806040525081019061154c9190612118565b61155957611558612145565b5b505b8482600101600082825461156f9190611ed5565b92505081905550428260000181905550848360020160008282546115939190611ed5565b925050819055508260000160009054906101000a900473ffffffffffffffffffffffffffffffffffffffff1673ffffffffffffffffffffffffffffffffffffffff166323b872dd6115e26116a3565b30886040518463ffffffff1660e01b815260040161160293929190612506565b6020604051808303816000875af1158015611621573d6000803e3d6000fd5b505050506040513d601f19601f820116820180604052508101906116459190612118565b61165257611651612145565b5b7fb4caaf29adda3eefee3ad552a8e85058589bf834c7466cae4ee58787f70589ed61167b6116a3565b86884260405161168e949392919061253d565b60405180910390a16001935050505092915050565b600033905090565b60008060009054906101000a900473ffffffffffffffffffffffffffffffffffffffff169050816000806101000a81548173ffffffffffffffffffffffffffffffffffffffff021916908373ffffffffffffffffffffffffffffffffffffffff1602179055508173ffffffffffffffffffffffffffffffffffffffff168173ffffffffffffffffffffffffffffffffffffffff167f8be0079c531659141344cd1fd0a4f28419497f9722a3daafe3b4186f6b6457e060405160405180910390a35050565b604051806040016040528060008152602001600081525090565b6040518060800160405280600073ffffffffffffffffffffffffffffffffffffffff168152602001600073ffffffffffffffffffffffffffffffffffffffff16815260200160008152602001600060ff1681525090565b600080fd5b6000819050919050565b6117f8816117e5565b811461180357600080fd5b50565b600081359050611815816117ef565b92915050565b600060208284031215611831576118306117e0565b5b600061183f84828501611806565b91505092915050565b611851816117e5565b82525050565b600060208201905061186c6000830184611848565b92915050565b60008115159050919050565b61188781611872565b811461189257600080fd5b50565b6000813590506118a48161187e565b92915050565b600080604083850312156118c1576118c06117e0565b5b60006118cf85828601611806565b92505060206118e085828601611895565b9150509250929050565b6118f381611872565b82525050565b600060208201905061190e60008301846118ea565b92915050565b600073ffffffffffffffffffffffffffffffffffffffff82169050919050565b600061193f82611914565b9050919050565b61194f81611934565b811461195a57600080fd5b50565b60008135905061196c81611946565b92915050565b60008060408385031215611989576119886117e0565b5b60006119978582860161195d565b92505060206119a885828601611806565b9150509250929050565b6119bb816117e5565b82525050565b6040820160008201516119d760008501826119b2565b5060208201516119ea60208501826119b2565b50505050565b6000604082019050611a0560008301846119c1565b92915050565b611a1481611934565b82525050565b600060ff82169050919050565b611a3081611a1a565b82525050565b608082016000820151611a4c6000850182611a0b565b506020820151611a5f6020850182611a0b565b506040820151611a7260408501826119b2565b506060820151611a856060850182611a27565b50505050565b6000608082019050611aa06000830184611a36565b92915050565b600080600060608486031215611abf57611abe6117e0565b5b6000611acd8682870161195d565b9350506020611ade8682870161195d565b9250506040611aef86828701611806565b9150509250925092565b611b0281611934565b82525050565b6000602082019050611b1d6000830184611af9565b92915050565b600060208284031215611b3957611b386117e0565b5b6000611b4784828501611895565b91505092915050565b6000604082019050611b656000830185611848565b611b726020830184611848565b9392505050565b600060208284031215611b8f57611b8e6117e0565b5b6000611b9d8482850161195d565b91505092915050565b611baf81611a1a565b82525050565b6000608082019050611bca6000830187611af9565b611bd76020830186611af9565b611be46040830185611848565b611bf16060830184611ba6565b95945050505050565b60008060408385031215611c1157611c106117e0565b5b6000611c1f85828601611806565b9250506020611c3085828601611806565b9150509250929050565b600082825260208201905092915050565b7f5374616b6520416d6f756e74204973205a65726f000000000000000000000000600082015250565b6000611c81601483611c3a565b9150611c8c82611c4b565b602082019050919050565b60006020820190508181036000830152611cb081611c74565b9050919050565b7f4e487b7100000000000000000000000000000000000000000000000000000000600052601160045260246000fd5b6000611cf1826117e5565b9150611cfc836117e5565b925082821015611d0f57611d0e611cb7565b5b828203905092915050565b6000611d25826117e5565b9150611d30836117e5565b9250817fffffffffffffffffffffffffffffffffffffffffffffffffffffffffffffffff0483118215151615611d6957611d68611cb7565b5b828202905092915050565b7f4e487b7100000000000000000000000000000000000000000000000000000000600052601260045260246000fd5b6000611dae826117e5565b9150611db9836117e5565b925082611dc957611dc8611d74565b5b828204905092915050565b7f4f776e61626c653a2063616c6c6572206973206e6f7420746865206f776e6572600082015250565b6000611e0a602083611c3a565b9150611e1582611dd4565b602082019050919050565b60006020820190508181036000830152611e3981611dfd565b9050919050565b7f496e61766c696420506f6f6c2049442e00000000000000000000000000000000600082015250565b6000611e76601083611c3a565b9150611e8182611e40565b602082019050919050565b60006020820190508181036000830152611ea581611e69565b9050919050565b6000604082019050611ec16000830185611848565b611ece60208301846118ea565b9392505050565b6000611ee0826117e5565b9150611eeb836117e5565b9250827fffffffffffffffffffffffffffffffffffffffffffffffffffffffffffffffff03821115611f2057611f1f611cb7565b5b828201905092915050565b7f496e76616c6964205374616b65204f722052657761726420546f6b656e20416460008201527f6472657373000000000000000000000000000000000000000000000000000000602082015250565b6000611f87602583611c3a565b9150611f9282611f2b565b604082019050919050565b60006020820190508181036000830152611fb681611f7a565b9050919050565b6000608082019050611fd26000830187611848565b611fdf6020830186611af9565b611fec6040830185611af9565b611ff96060830184611848565b95945050505050565b7f5374616b696e6720497320506175736564000000000000000000000000000000600082015250565b6000612038601183611c3a565b915061204382612002565b602082019050919050565b600060208201905081810360008301526120678161202b565b9050919050565b7f4e6f2052657761726420546f20436c61696d0000000000000000000000000000600082015250565b60006120a4601283611c3a565b91506120af8261206e565b602082019050919050565b600060208201905081810360008301526120d381612097565b9050919050565b60006040820190506120ef6000830185611af9565b6120fc6020830184611848565b9392505050565b6000815190506121128161187e565b92915050565b60006020828403121561212e5761212d6117e0565b5b600061213c84828501612103565b91505092915050565b7f4e487b7100000000000000000000000000000000000000000000000000000000600052600160045260246000fd5b600060a0820190506121896000830188611af9565b6121966020830187611848565b6121a36040830186611848565b6121b06060830185611848565b6121bd60808301846118ea565b9695505050505050565b7f4f776e61626c653a206e6577206f776e657220697320746865207a65726f206160008201527f6464726573730000000000000000000000000000000000000000000000000000602082015250565b6000612223602683611c3a565b915061222e826121c7565b604082019050919050565b6000602082019050818103600083015261225281612216565b9050919050565b7f5374616b696e67204973205061757365642e0000000000000000000000000000600082015250565b600061228f601283611c3a565b915061229a82612259565b602082019050919050565b600060208201905081810360008301526122be81612282565b9050919050565b7f496e76616c696420506f6f6c2049442e00000000000000000000000000000000600082015250565b60006122fb601083611c3a565b9150612306826122c5565b602082019050919050565b6000602082019050818103600083015261232a816122ee565b9050919050565b7f506f6f6c204973204e6f74204163746976650000000000000000000000000000600082015250565b6000612367601283611c3a565b915061237282612331565b602082019050919050565b600060208201905081810360008301526123968161235a565b9050919050565b60006040820190506123b26000830185611af9565b6123bf6020830184611af9565b9392505050565b6000815190506123d5816117ef565b92915050565b6000602082840312156123f1576123f06117e0565b5b60006123ff848285016123c6565b91505092915050565b7f4e6f74204861766520456e6f7567687420416c6c6f77616e6365000000000000600082015250565b600061243e601a83611c3a565b915061244982612408565b602082019050919050565b6000602082019050818103600083015261246d81612431565b9050919050565b7f53656e64657220446f6573204e6f74204861766520456e6f7567682042616c6160008201527f6e63650000000000000000000000000000000000000000000000000000000000602082015250565b60006124d0602383611c3a565b91506124db82612474565b604082019050919050565b600060208201905081810360008301526124ff816124c3565b9050919050565b600060608201905061251b6000830186611af9565b6125286020830185611af9565b6125356040830184611848565b949350505050565b60006080820190506125526000830187611af9565b61255f6020830186611848565b61256c6040830185611848565b6125796060830184611848565b9594505050505056fea26469706673582212203f0a0ea42f5b36f02ad343c0ad35bab73617aa1956b88ae6dde42b3dc15dd85164736f6c634300080c0033",
  "immutableReferences": {},
  "source": "// SPDX-License-Identifier: MIT\n\npragma solidity ^0.8.12;\n\nimport \"@openzeppelin/contracts/access/Ownable.sol\";\nimport \"@openzeppelin/contracts/token/ERC20/IERC20.sol\";\nimport \"./IStakingProtocol.sol\";\n\n\ncontract StakingProtocol is IStakingProtocol, Ownable {\n\n    bool public paused;\n    uint256 public poolCount;\n    uint256 public cliff; //Change variable name to more approprite.\n\n    // struct PoolInfo {\n    //     address stakingToken;\n    //     address rewardToken;\n    //     uint256 yieldPerSecond;\n    //     uint256 totalStaked;\n    // }\n\n    // struct StakingInfo {\n    //     uint256 stakeTime;\n    //     uint256 stakeAmount;\n    // }\n\n    // event PoolCreated(uint256 indexed poolId, address indexed stakingToken, address indexed rewardToken, uint256 yieldPerSecond );\n    // event PoolStatusChanged(uint256 indexed poolId, bool poolStatus);\n    // event Staked(address indexed user, uint256 amount, uint256 indexed poolId, uint256 indexed time);\n    // event Claimed(address indexed user, uint256 reward, uint256 indexed poolId, uint256 time, bool indexed unStaking);\n\n    mapping(uint256 => PoolInfo) public pool;\n    mapping(address => mapping(uint256 => StakingInfo)) public stake;\n    mapping(uint256 => bool) public poolStatus;\n\n    function changeStakingStatus(bool stakingStatus_) public virtual override onlyOwner returns (bool) {\n        paused = stakingStatus_;\n        return true;\n    }\n\n    function changePoolStatus(uint256 poolId, bool poolStatus_) public virtual override onlyOwner returns (bool) {\n        require(poolId <= poolCount, \"Inavlid Pool ID.\");\n        poolStatus[poolId] = poolStatus_;\n        emit PoolStatusChanged(poolId, poolStatus_);\n        return true;\n    }\n\n    function createPool( address stakingToken, address rewardToken, uint256 yieldPerSecond ) public virtual override onlyOwner returns (bool) {\n        require(stakingToken != address(0) && rewardToken != address(0), \"Invalid Stake Or Reward Token Address\");\n        poolCount += 1;\n        pool[poolCount] = PoolInfo(rewardToken, stakingToken, yieldPerSecond, 0);\n        emit PoolCreated(poolCount, stakingToken, rewardToken, yieldPerSecond);\n        return true;\n    }\n\n    function stakeToken(uint256 poolId, uint256 amount) external virtual override returns (bool) {\n        require(!paused, \"Staking Is Paused.\");\n        require(poolId <= poolCount, \"Invalid Pool ID.\");\n        require(!poolStatus[poolId], \"Pool Is Not Active\");\n\n        PoolInfo storage _poolInfo = pool[poolId];\n        StakingInfo storage _stakeInfo = stake[_msgSender()][poolId];\n        address tokenAddress = _poolInfo.stakingToken;\n\n        require(IERC20(tokenAddress).allowance(_msgSender(), address(this)) >= amount, \"Not Have Enought Allowance\");\n        require(IERC20(tokenAddress).balanceOf(_msgSender()) >= amount, \"Sender Does Not Have Enough Balance\");\n\n        if (_stakeInfo.stakeAmount > 0) {\n            uint256 unclaimedReward = fetchUnclaimedReward(poolId);\n\n            assert(IERC20(_poolInfo.rewardToken).transfer(_msgSender(), unclaimedReward));\n        }\n\n        _stakeInfo.stakeAmount += amount;\n        _stakeInfo.stakeTime = block.timestamp;\n        _poolInfo.totalStaked += amount;\n\n        assert(IERC20(_poolInfo.stakingToken).transferFrom(_msgSender(), address(this), amount));\n\n        emit Staked(_msgSender(), amount, poolId, block.timestamp);\n\n        return true;\n    }\n\n    function claimToken(uint256 poolId, bool unStaking) public virtual override returns (bool) {\n        require(!paused, \"Staking Is Paused\");\n        uint256 unclaimedReward = fetchUnclaimedReward(poolId);\n        require(unclaimedReward > 0, \"No Reward To Claim\");\n\n        PoolInfo storage _poolInfo = pool[poolId];\n        StakingInfo storage _stakeInfo = stake[_msgSender()][poolId];\n\n        uint256 amount = _stakeInfo.stakeAmount;\n        _stakeInfo.stakeTime = block.timestamp;\n\n        if (unStaking) {\n            _stakeInfo.stakeAmount = 0;\n            _poolInfo.totalStaked -= _stakeInfo.stakeAmount;\n\n            assert(IERC20(_poolInfo.stakingToken).transfer(_msgSender(), amount));\n        }\n        assert(IERC20(_poolInfo.rewardToken).transfer(_msgSender(), unclaimedReward));\n\n        emit Claimed(_msgSender(), unclaimedReward, poolId, block.timestamp, unStaking);\n\n        return true;\n    }\n\n    function stakeInfo(address user, uint256 poolId) external view virtual override returns (StakingInfo memory) {\n        StakingInfo storage _stakeInfo = stake[user][poolId];\n\n        if (block.timestamp > _stakeInfo.stakeTime + cliff) {\n            return stake[user][poolId];\n        } else {\n            return stake[address(0)][0];\n        }\n    }\n\n    function fetchUnclaimedReward(uint256 poolId) public view virtual override returns (uint256) {\n        StakingInfo storage _stakeInfo = stake[_msgSender()][poolId];\n        PoolInfo storage _poolInfo = pool[poolId];\n\n        require(_stakeInfo.stakeAmount > 0, \"Stake Amount Is Zero\");\n\n        uint256 totalStakeTime = block.timestamp - _stakeInfo.stakeTime;\n        uint256 totalReward = _stakeInfo.stakeAmount * totalStakeTime * _poolInfo.yieldPerSecond;\n        totalReward = (totalReward / 31536000);\n\n        return totalReward;\n    }\n\n    /// @dev see {IMtkzStaking-fetchPool}\n    function fetchPoolInfo(uint256 poolId) external view virtual override returns (PoolInfo memory)\n    {\n        return pool[poolId];\n    }\n}\n\n",
  "sourcePath": "/home/dev-varun/Documents/Solidity/Staking-Protocol/contracts/StakingProtocol.sol",
  "compiler": {
    "name": "solc",
    "version": "0.8.12+commit.f00d7308.Emscripten.clang"
  },
  "schemaVersion": "3.4.4",
  "updatedAt": "2022-04-17T17:56:07.713Z",
  "devdoc": {
    "kind": "dev",
    "methods": {
      "fetchPoolInfo(uint256)": {
        "details": "see {IMtkzStaking-fetchPool}"
      },
      "owner()": {
        "details": "Returns the address of the current owner."
      },
      "renounceOwnership()": {
        "details": "Leaves the contract without owner. It will not be possible to call `onlyOwner` functions anymore. Can only be called by the current owner. NOTE: Renouncing ownership will leave the contract without an owner, thereby removing any functionality that is only available to the owner."
      },
      "transferOwnership(address)": {
        "details": "Transfers ownership of the contract to a new account (`newOwner`). Can only be called by the current owner."
      }
    },
    "version": 1
  },
  "userdoc": {
    "kind": "user",
    "methods": {},
    "version": 1
  }
}