{
  "contractName": "StakingProtocol",
  "abi": [
    {
      "anonymous": false,
      "inputs": [
        {
          "indexed": false,
          "internalType": "address",
          "name": "user",
          "type": "address"
        },
        {
          "indexed": false,
          "internalType": "uint256",
          "name": "reward",
          "type": "uint256"
        },
        {
          "indexed": false,
          "internalType": "uint256",
          "name": "poolId",
          "type": "uint256"
        },
        {
          "indexed": false,
          "internalType": "uint256",
          "name": "time",
          "type": "uint256"
        },
        {
          "indexed": false,
          "internalType": "bool",
          "name": "unStaking",
          "type": "bool"
        }
      ],
      "name": "Claimed",
      "type": "event"
    },
    {
      "anonymous": false,
      "inputs": [
        {
          "indexed": true,
          "internalType": "address",
          "name": "previousOwner",
          "type": "address"
        },
        {
          "indexed": true,
          "internalType": "address",
          "name": "newOwner",
          "type": "address"
        }
      ],
      "name": "OwnershipTransferred",
      "type": "event"
    },
    {
      "anonymous": false,
      "inputs": [
        {
          "indexed": false,
          "internalType": "uint256",
          "name": "poolId",
          "type": "uint256"
        },
        {
          "indexed": false,
          "internalType": "address",
          "name": "stakingToken",
          "type": "address"
        },
        {
          "indexed": false,
          "internalType": "address",
          "name": "rewardToken",
          "type": "address"
        },
        {
          "indexed": false,
          "internalType": "uint256",
          "name": "yieldPerSecond",
          "type": "uint256"
        }
      ],
      "name": "PoolCreated",
      "type": "event"
    },
    {
      "anonymous": false,
      "inputs": [
        {
          "indexed": false,
          "internalType": "uint256",
          "name": "poolId",
          "type": "uint256"
        },
        {
          "indexed": false,
          "internalType": "bool",
          "name": "poolStatus",
          "type": "bool"
        }
      ],
      "name": "PoolStatusChanged",
      "type": "event"
    },
    {
      "anonymous": false,
      "inputs": [
        {
          "indexed": false,
          "internalType": "address",
          "name": "user",
          "type": "address"
        },
        {
          "indexed": false,
          "internalType": "uint256",
          "name": "amount",
          "type": "uint256"
        },
        {
          "indexed": false,
          "internalType": "uint256",
          "name": "poolId",
          "type": "uint256"
        },
        {
          "indexed": false,
          "internalType": "uint256",
          "name": "time",
          "type": "uint256"
        }
      ],
      "name": "Staked",
      "type": "event"
    },
    {
      "inputs": [],
      "name": "cliff",
      "outputs": [
        {
          "internalType": "uint256",
          "name": "",
          "type": "uint256"
        }
      ],
      "stateMutability": "view",
      "type": "function"
    },
    {
      "inputs": [],
      "name": "owner",
      "outputs": [
        {
          "internalType": "address",
          "name": "",
          "type": "address"
        }
      ],
      "stateMutability": "view",
      "type": "function"
    },
    {
      "inputs": [],
      "name": "paused",
      "outputs": [
        {
          "internalType": "bool",
          "name": "",
          "type": "bool"
        }
      ],
      "stateMutability": "view",
      "type": "function"
    },
    {
      "inputs": [
        {
          "internalType": "uint256",
          "name": "",
          "type": "uint256"
        }
      ],
      "name": "pool",
      "outputs": [
        {
          "internalType": "address",
          "name": "stakingToken",
          "type": "address"
        },
        {
          "internalType": "address",
          "name": "rewardToken",
          "type": "address"
        },
        {
          "internalType": "uint256",
          "name": "yieldPerSecond",
          "type": "uint256"
        },
        {
          "internalType": "uint256",
          "name": "totalStaked",
          "type": "uint256"
        }
      ],
      "stateMutability": "view",
      "type": "function"
    },
    {
      "inputs": [],
      "name": "poolCount",
      "outputs": [
        {
          "internalType": "uint256",
          "name": "",
          "type": "uint256"
        }
      ],
      "stateMutability": "view",
      "type": "function"
    },
    {
      "inputs": [
        {
          "internalType": "uint256",
          "name": "",
          "type": "uint256"
        }
      ],
      "name": "poolStatus",
      "outputs": [
        {
          "internalType": "bool",
          "name": "",
          "type": "bool"
        }
      ],
      "stateMutability": "view",
      "type": "function"
    },
    {
      "inputs": [],
      "name": "renounceOwnership",
      "outputs": [],
      "stateMutability": "nonpayable",
      "type": "function"
    },
    {
      "inputs": [
        {
          "internalType": "address",
          "name": "",
          "type": "address"
        },
        {
          "internalType": "uint256",
          "name": "",
          "type": "uint256"
        }
      ],
      "name": "stake",
      "outputs": [
        {
          "internalType": "uint256",
          "name": "stakeTime",
          "type": "uint256"
        },
        {
          "internalType": "uint256",
          "name": "stakeAmount",
          "type": "uint256"
        }
      ],
      "stateMutability": "view",
      "type": "function"
    },
    {
      "inputs": [
        {
          "internalType": "address",
          "name": "newOwner",
          "type": "address"
        }
      ],
      "name": "transferOwnership",
      "outputs": [],
      "stateMutability": "nonpayable",
      "type": "function"
    },
    {
      "inputs": [
        {
          "internalType": "uint256",
          "name": "_cliff",
          "type": "uint256"
        }
      ],
      "name": "setCliff",
      "outputs": [
        {
          "internalType": "bool",
          "name": "",
          "type": "bool"
        }
      ],
      "stateMutability": "nonpayable",
      "type": "function"
    },
    {
      "inputs": [
        {
          "internalType": "bool",
          "name": "stakingStatus_",
          "type": "bool"
        }
      ],
      "name": "changeStakingStatus",
      "outputs": [
        {
          "internalType": "bool",
          "name": "",
          "type": "bool"
        }
      ],
      "stateMutability": "nonpayable",
      "type": "function"
    },
    {
      "inputs": [
        {
          "internalType": "uint256",
          "name": "poolId",
          "type": "uint256"
        },
        {
          "internalType": "bool",
          "name": "poolStatus_",
          "type": "bool"
        }
      ],
      "name": "changePoolStatus",
      "outputs": [
        {
          "internalType": "bool",
          "name": "",
          "type": "bool"
        }
      ],
      "stateMutability": "nonpayable",
      "type": "function"
    },
    {
      "inputs": [
        {
          "internalType": "address",
          "name": "stakingToken",
          "type": "address"
        },
        {
          "internalType": "address",
          "name": "rewardToken",
          "type": "address"
        },
        {
          "internalType": "uint256",
          "name": "yieldPerSecond",
          "type": "uint256"
        }
      ],
      "name": "createPool",
      "outputs": [
        {
          "internalType": "bool",
          "name": "",
          "type": "bool"
        }
      ],
      "stateMutability": "nonpayable",
      "type": "function"
    },
    {
      "inputs": [
        {
          "internalType": "uint256",
          "name": "poolId",
          "type": "uint256"
        },
        {
          "internalType": "uint256",
          "name": "amount",
          "type": "uint256"
        }
      ],
      "name": "stakeToken",
      "outputs": [
        {
          "internalType": "bool",
          "name": "",
          "type": "bool"
        }
      ],
      "stateMutability": "nonpayable",
      "type": "function"
    },
    {
      "inputs": [
        {
          "internalType": "uint256",
          "name": "poolId",
          "type": "uint256"
        },
        {
          "internalType": "bool",
          "name": "unStaking",
          "type": "bool"
        }
      ],
      "name": "claimToken",
      "outputs": [
        {
          "internalType": "bool",
          "name": "",
          "type": "bool"
        }
      ],
      "stateMutability": "nonpayable",
      "type": "function"
    },
    {
      "inputs": [
        {
          "internalType": "address",
          "name": "user",
          "type": "address"
        },
        {
          "internalType": "uint256",
          "name": "poolId",
          "type": "uint256"
        }
      ],
      "name": "stakeInfo",
      "outputs": [
        {
          "components": [
            {
              "internalType": "uint256",
              "name": "stakeTime",
              "type": "uint256"
            },
            {
              "internalType": "uint256",
              "name": "stakeAmount",
              "type": "uint256"
            }
          ],
          "internalType": "struct IStakingProtocol.StakingInfo",
          "name": "",
          "type": "tuple"
        }
      ],
      "stateMutability": "view",
      "type": "function"
    },
    {
      "inputs": [
        {
          "internalType": "uint256",
          "name": "poolId",
          "type": "uint256"
        }
      ],
      "name": "fetchUnclaimedReward",
      "outputs": [
        {
          "internalType": "uint256",
          "name": "",
          "type": "uint256"
        }
      ],
      "stateMutability": "view",
      "type": "function"
    },
    {
      "inputs": [
        {
          "internalType": "uint256",
          "name": "poolId",
          "type": "uint256"
        }
      ],
      "name": "fetchPoolInfo",
      "outputs": [
        {
          "components": [
            {
              "internalType": "address",
              "name": "stakingToken",
              "type": "address"
            },
            {
              "internalType": "address",
              "name": "rewardToken",
              "type": "address"
            },
            {
              "internalType": "uint256",
              "name": "yieldPerSecond",
              "type": "uint256"
            },
            {
              "internalType": "uint256",
              "name": "totalStaked",
              "type": "uint256"
            }
          ],
          "internalType": "struct IStakingProtocol.PoolInfo",
          "name": "",
          "type": "tuple"
        }
      ],
      "stateMutability": "view",
      "type": "function"
    }
  ],
  "bytecode": "0x60806040523480156200001157600080fd5b5062000032620000266200003860201b60201c565b6200004060201b60201c565b62000104565b600033905090565b60008060009054906101000a900473ffffffffffffffffffffffffffffffffffffffff169050816000806101000a81548173ffffffffffffffffffffffffffffffffffffffff021916908373ffffffffffffffffffffffffffffffffffffffff1602179055508173ffffffffffffffffffffffffffffffffffffffff168173ffffffffffffffffffffffffffffffffffffffff167f8be0079c531659141344cd1fd0a4f28419497f9722a3daafe3b4186f6b6457e060405160405180910390a35050565b61260a80620001146000396000f3fe608060405234801561001057600080fd5b50600436106101165760003560e01c806396e7952e116100a2578063f525cb6811610071578063f525cb681461031c578063f665d10b1461033a578063fe3131121461036a578063ff4d1f251461039d578063ffab4bd9146103cd57610116565b806396e7952e1461026f5780639946e3411461029f578063adc9772e146102cf578063f2fde38b1461030057610116565b8063424122d3116100e9578063424122d3146101c957806351810fb5146101f95780635c975abb14610229578063715018a6146102475780638da5cb5b1461025157610116565b80630bd3e58d1461011b5780630bfd351c1461014b57806313d033c01461017b5780631c43bd7d14610199575b600080fd5b61013560048036038101906101309190611898565b6103fd565b60405161014291906118d4565b60405180910390f35b61016560048036038101906101609190611927565b61050c565b6040516101729190611976565b60405180910390f35b61018361063d565b60405161019091906118d4565b60405180910390f35b6101b360048036038101906101ae91906119ef565b610643565b6040516101c09190611a6d565b60405180910390f35b6101e360048036038101906101de9190611898565b6107a8565b6040516101f09190611aec565b60405180910390f35b610213600480360381019061020e9190611b07565b610895565b6040516102209190611976565b60405180910390f35b610231610b27565b60405161023e9190611976565b60405180910390f35b61024f610b3a565b005b610259610bc2565b6040516102669190611b69565b60405180910390f35b61028960048036038101906102849190611927565b610beb565b6040516102969190611976565b60405180910390f35b6102b960048036038101906102b49190611b84565b610f01565b6040516102c69190611976565b60405180910390f35b6102e960048036038101906102e491906119ef565b610fa2565b6040516102f7929190611bb1565b60405180910390f35b61031a60048036038101906103159190611bda565b610fd3565b005b6103246110cb565b60405161033191906118d4565b60405180910390f35b610354600480360381019061034f9190611898565b6110d1565b6040516103619190611976565b60405180910390f35b610384600480360381019061037f9190611898565b6110f1565b6040516103949493929190611c07565b60405180910390f35b6103b760048036038101906103b29190611898565b611161565b6040516103c49190611976565b60405180910390f35b6103e760048036038101906103e29190611c4c565b6111ef565b6040516103f49190611976565b60405180910390f35b6000806005600061040c611723565b73ffffffffffffffffffffffffffffffffffffffff1673ffffffffffffffffffffffffffffffffffffffff16815260200190815260200160002060008481526020019081526020016000209050600060046000858152602001908152602001600020905060008260010154116104b7576040517f08c379a00000000000000000000000000000000000000000000000000000000081526004016104ae90611ce9565b60405180910390fd5b60008260000154426104c99190611d38565b9050600082600201548285600101546104e29190611d6c565b6104ec9190611d6c565b90506301e13380816104fe9190611df5565b905080945050505050919050565b6000610516611723565b73ffffffffffffffffffffffffffffffffffffffff16610534610bc2565b73ffffffffffffffffffffffffffffffffffffffff161461058a576040517f08c379a000000000000000000000000000000000000000000000000000000000815260040161058190611e72565b60405180910390fd5b6001548311156105cf576040517f08c379a00000000000000000000000000000000000000000000000000000000081526004016105c690611ede565b60405180910390fd5b816006600085815260200190815260200160002060006101000a81548160ff0219169083151502179055507fb3c3c605d1520cd5bf41301dd5c04929e0ff021b02a10ea259b5a5b2d521a29c838360405161062b929190611efe565b60405180910390a16001905092915050565b60025481565b61064b6117ef565b6000600560008573ffffffffffffffffffffffffffffffffffffffff1673ffffffffffffffffffffffffffffffffffffffff1681526020019081526020016000206000848152602001908152602001600020905060025481600001546106b19190611f27565b42111561072f57600560008573ffffffffffffffffffffffffffffffffffffffff1673ffffffffffffffffffffffffffffffffffffffff1681526020019081526020016000206000848152602001908152602001600020604051806040016040529081600082015481526020016001820154815250509150506107a2565b600560008073ffffffffffffffffffffffffffffffffffffffff1673ffffffffffffffffffffffffffffffffffffffff1681526020019081526020016000206000808152602001908152602001600020604051806040016040529081600082015481526020016001820154815250509150505b92915050565b6107b0611809565b600460008381526020019081526020016000206040518060800160405290816000820160009054906101000a900473ffffffffffffffffffffffffffffffffffffffff1673ffffffffffffffffffffffffffffffffffffffff1673ffffffffffffffffffffffffffffffffffffffff1681526020016001820160009054906101000a900473ffffffffffffffffffffffffffffffffffffffff1673ffffffffffffffffffffffffffffffffffffffff1673ffffffffffffffffffffffffffffffffffffffff168152602001600282015481526020016003820154815250509050919050565b600061089f611723565b73ffffffffffffffffffffffffffffffffffffffff166108bd610bc2565b73ffffffffffffffffffffffffffffffffffffffff1614610913576040517f08c379a000000000000000000000000000000000000000000000000000000000815260040161090a90611e72565b60405180910390fd5b600073ffffffffffffffffffffffffffffffffffffffff168473ffffffffffffffffffffffffffffffffffffffff161415801561097d5750600073ffffffffffffffffffffffffffffffffffffffff168373ffffffffffffffffffffffffffffffffffffffff1614155b6109bc576040517f08c379a00000000000000000000000000000000000000000000000000000000081526004016109b390611fef565b60405180910390fd5b60018060008282546109ce9190611f27565b9250508190555060405180608001604052808573ffffffffffffffffffffffffffffffffffffffff1681526020018473ffffffffffffffffffffffffffffffffffffffff168152602001838152602001600081525060046000600154815260200190815260200160002060008201518160000160006101000a81548173ffffffffffffffffffffffffffffffffffffffff021916908373ffffffffffffffffffffffffffffffffffffffff16021790555060208201518160010160006101000a81548173ffffffffffffffffffffffffffffffffffffffff021916908373ffffffffffffffffffffffffffffffffffffffff16021790555060408201518160020155606082015181600301559050507ff756876565d755443228c555dcee8573d6405d9be751ac121eb5e386ed86913a600154858585604051610b14949392919061200f565b60405180910390a1600190509392505050565b600360009054906101000a900460ff1681565b610b42611723565b73ffffffffffffffffffffffffffffffffffffffff16610b60610bc2565b73ffffffffffffffffffffffffffffffffffffffff1614610bb6576040517f08c379a0000000000000000000000000000000000000000000000000000000008152600401610bad90611e72565b60405180910390fd5b610bc0600061172b565b565b60008060009054906101000a900473ffffffffffffffffffffffffffffffffffffffff16905090565b6000600360009054906101000a900460ff1615610c3d576040517f08c379a0000000000000000000000000000000000000000000000000000000008152600401610c34906120a0565b60405180910390fd5b6000610c48846103fd565b905060008111610c8d576040517f08c379a0000000000000000000000000000000000000000000000000000000008152600401610c849061210c565b60405180910390fd5b6000600460008681526020019081526020016000209050600060056000610cb2611723565b73ffffffffffffffffffffffffffffffffffffffff1673ffffffffffffffffffffffffffffffffffffffff168152602001908152602001600020600087815260200190815260200160002090506000816001015490504282600001819055508515610df757600082600101819055508160010154836003016000828254610d399190611d38565b925050819055508260000160009054906101000a900473ffffffffffffffffffffffffffffffffffffffff1673ffffffffffffffffffffffffffffffffffffffff1663a9059cbb610d88611723565b836040518363ffffffff1660e01b8152600401610da692919061212c565b6020604051808303816000875af1158015610dc5573d6000803e3d6000fd5b505050506040513d601f19601f82011682018060405250810190610de9919061216a565b610df657610df5612197565b5b5b8260010160009054906101000a900473ffffffffffffffffffffffffffffffffffffffff1673ffffffffffffffffffffffffffffffffffffffff1663a9059cbb610e3f611723565b866040518363ffffffff1660e01b8152600401610e5d92919061212c565b6020604051808303816000875af1158015610e7c573d6000803e3d6000fd5b505050506040513d601f19601f82011682018060405250810190610ea0919061216a565b610ead57610eac612197565b5b7f67cad33bfde477c6739dc9adc3b22fc9eac9c1ce5f0f349d6f15351caf0698cb610ed6611723565b8589428a604051610eeb9594939291906121c6565b60405180910390a1600194505050505092915050565b6000610f0b611723565b73ffffffffffffffffffffffffffffffffffffffff16610f29610bc2565b73ffffffffffffffffffffffffffffffffffffffff1614610f7f576040517f08c379a0000000000000000000000000000000000000000000000000000000008152600401610f7690611e72565b60405180910390fd5b81600360006101000a81548160ff02191690831515021790555060019050919050565b6005602052816000526040600020602052806000526040600020600091509150508060000154908060010154905082565b610fdb611723565b73ffffffffffffffffffffffffffffffffffffffff16610ff9610bc2565b73ffffffffffffffffffffffffffffffffffffffff161461104f576040517f08c379a000000000000000000000000000000000000000000000000000000000815260040161104690611e72565b60405180910390fd5b600073ffffffffffffffffffffffffffffffffffffffff168173ffffffffffffffffffffffffffffffffffffffff1614156110bf576040517f08c379a00000000000000000000000000000000000000000000000000000000081526004016110b69061228b565b60405180910390fd5b6110c88161172b565b50565b60015481565b60066020528060005260406000206000915054906101000a900460ff1681565b60046020528060005260406000206000915090508060000160009054906101000a900473ffffffffffffffffffffffffffffffffffffffff16908060010160009054906101000a900473ffffffffffffffffffffffffffffffffffffffff16908060020154908060030154905084565b600061116b611723565b73ffffffffffffffffffffffffffffffffffffffff16611189610bc2565b73ffffffffffffffffffffffffffffffffffffffff16146111df576040517f08c379a00000000000000000000000000000000000000000000000000000000081526004016111d690611e72565b60405180910390fd5b8160028190555060019050919050565b6000600360009054906101000a900460ff1615611241576040517f08c379a0000000000000000000000000000000000000000000000000000000008152600401611238906122f7565b60405180910390fd5b600154831115611286576040517f08c379a000000000000000000000000000000000000000000000000000000000815260040161127d90612363565b60405180910390fd5b6006600084815260200190815260200160002060009054906101000a900460ff166112e6576040517f08c379a00000000000000000000000000000000000000000000000000000000081526004016112dd906123cf565b60405180910390fd5b600060046000858152602001908152602001600020905060006005600061130b611723565b73ffffffffffffffffffffffffffffffffffffffff1673ffffffffffffffffffffffffffffffffffffffff1681526020019081526020016000206000868152602001908152602001600020905060008260000160009054906101000a900473ffffffffffffffffffffffffffffffffffffffff169050848173ffffffffffffffffffffffffffffffffffffffff1663dd62ed3e6113a6611723565b306040518363ffffffff1660e01b81526004016113c49291906123ef565b602060405180830381865afa1580156113e1573d6000803e3d6000fd5b505050506040513d601f19601f82011682018060405250810190611405919061242d565b1015611446576040517f08c379a000000000000000000000000000000000000000000000000000000000815260040161143d906124a6565b60405180910390fd5b848173ffffffffffffffffffffffffffffffffffffffff166370a0823161146b611723565b6040518263ffffffff1660e01b81526004016114879190611b69565b602060405180830381865afa1580156114a4573d6000803e3d6000fd5b505050506040513d601f19601f820116820180604052508101906114c8919061242d565b1015611509576040517f08c379a000000000000000000000000000000000000000000000000000000000815260040161150090612538565b60405180910390fd5b6000826001015411156115db576000611521876103fd565b90508360010160009054906101000a900473ffffffffffffffffffffffffffffffffffffffff1673ffffffffffffffffffffffffffffffffffffffff1663a9059cbb61156b611723565b836040518363ffffffff1660e01b815260040161158992919061212c565b6020604051808303816000875af11580156115a8573d6000803e3d6000fd5b505050506040513d601f19601f820116820180604052508101906115cc919061216a565b6115d9576115d8612197565b5b505b848260010160008282546115ef9190611f27565b92505081905550428260000181905550848360030160008282546116139190611f27565b925050819055508260000160009054906101000a900473ffffffffffffffffffffffffffffffffffffffff1673ffffffffffffffffffffffffffffffffffffffff166323b872dd611662611723565b30886040518463ffffffff1660e01b815260040161168293929190612558565b6020604051808303816000875af11580156116a1573d6000803e3d6000fd5b505050506040513d601f19601f820116820180604052508101906116c5919061216a565b6116d2576116d1612197565b5b7fb4caaf29adda3eefee3ad552a8e85058589bf834c7466cae4ee58787f70589ed6116fb611723565b86884260405161170e949392919061258f565b60405180910390a16001935050505092915050565b600033905090565b60008060009054906101000a900473ffffffffffffffffffffffffffffffffffffffff169050816000806101000a81548173ffffffffffffffffffffffffffffffffffffffff021916908373ffffffffffffffffffffffffffffffffffffffff1602179055508173ffffffffffffffffffffffffffffffffffffffff168173ffffffffffffffffffffffffffffffffffffffff167f8be0079c531659141344cd1fd0a4f28419497f9722a3daafe3b4186f6b6457e060405160405180910390a35050565b604051806040016040528060008152602001600081525090565b6040518060800160405280600073ffffffffffffffffffffffffffffffffffffffff168152602001600073ffffffffffffffffffffffffffffffffffffffff16815260200160008152602001600081525090565b600080fd5b6000819050919050565b61187581611862565b811461188057600080fd5b50565b6000813590506118928161186c565b92915050565b6000602082840312156118ae576118ad61185d565b5b60006118bc84828501611883565b91505092915050565b6118ce81611862565b82525050565b60006020820190506118e960008301846118c5565b92915050565b60008115159050919050565b611904816118ef565b811461190f57600080fd5b50565b600081359050611921816118fb565b92915050565b6000806040838503121561193e5761193d61185d565b5b600061194c85828601611883565b925050602061195d85828601611912565b9150509250929050565b611970816118ef565b82525050565b600060208201905061198b6000830184611967565b92915050565b600073ffffffffffffffffffffffffffffffffffffffff82169050919050565b60006119bc82611991565b9050919050565b6119cc816119b1565b81146119d757600080fd5b50565b6000813590506119e9816119c3565b92915050565b60008060408385031215611a0657611a0561185d565b5b6000611a14858286016119da565b9250506020611a2585828601611883565b9150509250929050565b611a3881611862565b82525050565b604082016000820151611a546000850182611a2f565b506020820151611a676020850182611a2f565b50505050565b6000604082019050611a826000830184611a3e565b92915050565b611a91816119b1565b82525050565b608082016000820151611aad6000850182611a88565b506020820151611ac06020850182611a88565b506040820151611ad36040850182611a2f565b506060820151611ae66060850182611a2f565b50505050565b6000608082019050611b016000830184611a97565b92915050565b600080600060608486031215611b2057611b1f61185d565b5b6000611b2e868287016119da565b9350506020611b3f868287016119da565b9250506040611b5086828701611883565b9150509250925092565b611b63816119b1565b82525050565b6000602082019050611b7e6000830184611b5a565b92915050565b600060208284031215611b9a57611b9961185d565b5b6000611ba884828501611912565b91505092915050565b6000604082019050611bc660008301856118c5565b611bd360208301846118c5565b9392505050565b600060208284031215611bf057611bef61185d565b5b6000611bfe848285016119da565b91505092915050565b6000608082019050611c1c6000830187611b5a565b611c296020830186611b5a565b611c3660408301856118c5565b611c4360608301846118c5565b95945050505050565b60008060408385031215611c6357611c6261185d565b5b6000611c7185828601611883565b9250506020611c8285828601611883565b9150509250929050565b600082825260208201905092915050565b7f5374616b6520416d6f756e74204973205a65726f000000000000000000000000600082015250565b6000611cd3601483611c8c565b9150611cde82611c9d565b602082019050919050565b60006020820190508181036000830152611d0281611cc6565b9050919050565b7f4e487b7100000000000000000000000000000000000000000000000000000000600052601160045260246000fd5b6000611d4382611862565b9150611d4e83611862565b925082821015611d6157611d60611d09565b5b828203905092915050565b6000611d7782611862565b9150611d8283611862565b9250817fffffffffffffffffffffffffffffffffffffffffffffffffffffffffffffffff0483118215151615611dbb57611dba611d09565b5b828202905092915050565b7f4e487b7100000000000000000000000000000000000000000000000000000000600052601260045260246000fd5b6000611e0082611862565b9150611e0b83611862565b925082611e1b57611e1a611dc6565b5b828204905092915050565b7f4f776e61626c653a2063616c6c6572206973206e6f7420746865206f776e6572600082015250565b6000611e5c602083611c8c565b9150611e6782611e26565b602082019050919050565b60006020820190508181036000830152611e8b81611e4f565b9050919050565b7f496e61766c696420506f6f6c2049442e00000000000000000000000000000000600082015250565b6000611ec8601083611c8c565b9150611ed382611e92565b602082019050919050565b60006020820190508181036000830152611ef781611ebb565b9050919050565b6000604082019050611f1360008301856118c5565b611f206020830184611967565b9392505050565b6000611f3282611862565b9150611f3d83611862565b9250827fffffffffffffffffffffffffffffffffffffffffffffffffffffffffffffffff03821115611f7257611f71611d09565b5b828201905092915050565b7f496e76616c6964205374616b65204f722052657761726420546f6b656e20416460008201527f6472657373000000000000000000000000000000000000000000000000000000602082015250565b6000611fd9602583611c8c565b9150611fe482611f7d565b604082019050919050565b6000602082019050818103600083015261200881611fcc565b9050919050565b600060808201905061202460008301876118c5565b6120316020830186611b5a565b61203e6040830185611b5a565b61204b60608301846118c5565b95945050505050565b7f5374616b696e6720497320506175736564000000000000000000000000000000600082015250565b600061208a601183611c8c565b915061209582612054565b602082019050919050565b600060208201905081810360008301526120b98161207d565b9050919050565b7f4e6f2052657761726420546f20436c61696d0000000000000000000000000000600082015250565b60006120f6601283611c8c565b9150612101826120c0565b602082019050919050565b60006020820190508181036000830152612125816120e9565b9050919050565b60006040820190506121416000830185611b5a565b61214e60208301846118c5565b9392505050565b600081519050612164816118fb565b92915050565b6000602082840312156121805761217f61185d565b5b600061218e84828501612155565b91505092915050565b7f4e487b7100000000000000000000000000000000000000000000000000000000600052600160045260246000fd5b600060a0820190506121db6000830188611b5a565b6121e860208301876118c5565b6121f560408301866118c5565b61220260608301856118c5565b61220f6080830184611967565b9695505050505050565b7f4f776e61626c653a206e6577206f776e657220697320746865207a65726f206160008201527f6464726573730000000000000000000000000000000000000000000000000000602082015250565b6000612275602683611c8c565b915061228082612219565b604082019050919050565b600060208201905081810360008301526122a481612268565b9050919050565b7f5374616b696e67204973205061757365642e0000000000000000000000000000600082015250565b60006122e1601283611c8c565b91506122ec826122ab565b602082019050919050565b60006020820190508181036000830152612310816122d4565b9050919050565b7f496e76616c696420506f6f6c2049442e00000000000000000000000000000000600082015250565b600061234d601083611c8c565b915061235882612317565b602082019050919050565b6000602082019050818103600083015261237c81612340565b9050919050565b7f506f6f6c204973204e6f74204163746976650000000000000000000000000000600082015250565b60006123b9601283611c8c565b91506123c482612383565b602082019050919050565b600060208201905081810360008301526123e8816123ac565b9050919050565b60006040820190506124046000830185611b5a565b6124116020830184611b5a565b9392505050565b6000815190506124278161186c565b92915050565b6000602082840312156124435761244261185d565b5b600061245184828501612418565b91505092915050565b7f4e6f74204861766520456e6f75676820416c6c6f77616e636500000000000000600082015250565b6000612490601983611c8c565b915061249b8261245a565b602082019050919050565b600060208201905081810360008301526124bf81612483565b9050919050565b7f53656e64657220446f6573204e6f74204861766520456e6f7567682042616c6160008201527f6e63650000000000000000000000000000000000000000000000000000000000602082015250565b6000612522602383611c8c565b915061252d826124c6565b604082019050919050565b6000602082019050818103600083015261255181612515565b9050919050565b600060608201905061256d6000830186611b5a565b61257a6020830185611b5a565b61258760408301846118c5565b949350505050565b60006080820190506125a46000830187611b5a565b6125b160208301866118c5565b6125be60408301856118c5565b6125cb60608301846118c5565b9594505050505056fea26469706673582212201d056136148cb01b676bc37f7ddd86597b1025417e12d7f33e55795b4581d4dd64736f6c634300080c0033",
  "immutableReferences": {},
  "source": "// SPDX-License-Identifier: MIT\n\npragma solidity ^0.8.12;\n\nimport \"@openzeppelin/contracts/access/Ownable.sol\";\nimport \"@openzeppelin/contracts/token/ERC20/IERC20.sol\";\nimport \"./IStakingProtocol.sol\";\n\n\ncontract StakingProtocol is IStakingProtocol, Ownable {\n\n    uint256 public poolCount;\n    uint256 public cliff;\n    bool public paused;\n\n    mapping(uint256 => PoolInfo) public pool;\n    mapping(address => mapping(uint256 => StakingInfo)) public stake;\n    mapping(uint256 => bool) public poolStatus;\n\n    function setCliff(uint256 _cliff) external virtual override onlyOwner returns (bool){\n        cliff = _cliff;\n        return true;\n    }\n\n    function changeStakingStatus(bool stakingStatus_) external virtual override onlyOwner returns (bool) {\n        paused = stakingStatus_;\n        return true;\n    }\n\n    function changePoolStatus(uint256 poolId, bool poolStatus_) external virtual override onlyOwner returns (bool) {\n        require(poolId <= poolCount, \"Inavlid Pool ID.\");\n        poolStatus[poolId] = poolStatus_;\n        emit PoolStatusChanged(poolId, poolStatus_);\n        return true;\n    }\n\n    function createPool( address stakingToken, address rewardToken, uint256 yieldPerSecond ) external virtual override onlyOwner returns (bool) {\n        require(stakingToken != address(0) && rewardToken != address(0), \"Invalid Stake Or Reward Token Address\");\n        poolCount += 1;\n        pool[poolCount] = PoolInfo(stakingToken, rewardToken, yieldPerSecond, 0);\n        emit PoolCreated(poolCount, stakingToken, rewardToken, yieldPerSecond);\n        return true;\n    }\n\n    function stakeToken(uint256 poolId, uint256 amount) external virtual override returns (bool) {\n        require(!paused, \"Staking Is Paused.\");\n        require(poolId <= poolCount, \"Invalid Pool ID.\");\n        require(poolStatus[poolId], \"Pool Is Not Active\");\n\n        PoolInfo storage _poolInfo = pool[poolId];\n        StakingInfo storage _stakeInfo = stake[_msgSender()][poolId];\n        address tokenAddress = _poolInfo.stakingToken;\n\n        require(IERC20(tokenAddress).allowance(_msgSender(), address(this)) >= amount, \"Not Have Enough Allowance\");\n        require(IERC20(tokenAddress).balanceOf(_msgSender()) >= amount, \"Sender Does Not Have Enough Balance\");\n\n        if (_stakeInfo.stakeAmount > 0) {\n            uint256 unclaimedReward = fetchUnclaimedReward(poolId);\n\n            assert(IERC20(_poolInfo.rewardToken).transfer(_msgSender(), unclaimedReward));\n        }\n\n        _stakeInfo.stakeAmount += amount;\n        _stakeInfo.stakeTime = block.timestamp;\n        _poolInfo.totalStaked += amount;\n\n        assert(IERC20(_poolInfo.stakingToken).transferFrom(_msgSender(), address(this), amount));\n\n        emit Staked(_msgSender(), amount, poolId, block.timestamp);\n\n        return true;\n    }\n\n    function claimToken(uint256 poolId, bool unStaking) external virtual override returns (bool) {\n        require(!paused, \"Staking Is Paused\");\n        uint256 unclaimedReward = fetchUnclaimedReward(poolId);\n        require(unclaimedReward > 0, \"No Reward To Claim\");\n\n        PoolInfo storage _poolInfo = pool[poolId];\n        StakingInfo storage _stakeInfo = stake[_msgSender()][poolId];\n\n        uint256 amount = _stakeInfo.stakeAmount;\n        _stakeInfo.stakeTime = block.timestamp;\n\n        if (unStaking) {\n            _stakeInfo.stakeAmount = 0;\n            _poolInfo.totalStaked -= _stakeInfo.stakeAmount;\n\n            assert(IERC20(_poolInfo.stakingToken).transfer(_msgSender(), amount));\n        }\n        assert(IERC20(_poolInfo.rewardToken).transfer(_msgSender(), unclaimedReward));\n\n        emit Claimed(_msgSender(), unclaimedReward, poolId, block.timestamp, unStaking);\n\n        return true;\n    }\n\n    function stakeInfo(address user, uint256 poolId) external view virtual override returns (StakingInfo memory) {\n        StakingInfo storage _stakeInfo = stake[user][poolId];\n\n        if (block.timestamp > _stakeInfo.stakeTime + cliff) {\n            return stake[user][poolId];\n        } else {\n            return stake[address(0)][0];\n        }\n    }\n\n    function fetchUnclaimedReward(uint256 poolId) public view virtual override returns (uint256) {\n        StakingInfo storage _stakeInfo = stake[_msgSender()][poolId];\n        PoolInfo storage _poolInfo = pool[poolId];\n\n        require(_stakeInfo.stakeAmount > 0, \"Stake Amount Is Zero\");\n\n        uint256 totalStakeTime = block.timestamp - _stakeInfo.stakeTime;\n        uint256 totalReward = _stakeInfo.stakeAmount * totalStakeTime * _poolInfo.yieldPerSecond;\n        totalReward = (totalReward / 31536000);\n\n        return totalReward;\n    }\n\n    /// @dev see {IMtkzStaking-fetchPool}\n    function fetchPoolInfo(uint256 poolId) external view virtual override returns (PoolInfo memory)\n    {\n        return pool[poolId];\n    }\n}\n\n",
  "sourcePath": "/home/dev-varun/Documents/Solidity/Staking-Protocol/contracts/StakingProtocol.sol",
  "compiler": {
    "name": "solc",
    "version": "0.8.12+commit.f00d7308.Emscripten.clang"
  },
  "schemaVersion": "3.4.7",
  "updatedAt": "2022-04-19T18:57:24.693Z",
  "devdoc": {
    "kind": "dev",
    "methods": {
      "fetchPoolInfo(uint256)": {
        "details": "see {IMtkzStaking-fetchPool}"
      },
      "owner()": {
        "details": "Returns the address of the current owner."
      },
      "renounceOwnership()": {
        "details": "Leaves the contract without owner. It will not be possible to call `onlyOwner` functions anymore. Can only be called by the current owner. NOTE: Renouncing ownership will leave the contract without an owner, thereby removing any functionality that is only available to the owner."
      },
      "transferOwnership(address)": {
        "details": "Transfers ownership of the contract to a new account (`newOwner`). Can only be called by the current owner."
      }
    },
    "version": 1
  },
  "userdoc": {
    "kind": "user",
    "methods": {},
    "version": 1
  }
}